:100000000C9444000C9461000C9461000C94610009
:100010000C9461000C9461000C9461000C946100DC
:100020000C9461000C9461000C9461000C94050325
:100030000C9461000C9461000C9461000C946100BC
:100040000C9461000C9461000C9461000C946100AC
:100050000C946100484F5354494E54455246414315
:10006000455F5630325F56455253494F4E5F302EF2
:10007000325F0043414E49585F56455253494F4EF7
:100080005F302E392E365F0011241FBECFE5D8E039
:10009000DEBFCDBF10E0A0E6B0E0E0E9F6E102C0CF
:1000A00005900D92AE37B107D9F722E0AEE7B0E088
:1000B00001C01D92A731B207E1F70E948F0A0C948C
:1000C000460B0C94000080918300882331F081500E
:1000D00080938300813009F4D89A8091820088232C
:1000E00031F0815080938200813009F4D99A809157
:1000F0008100882331F0815080938100813009F4A0
:10010000DA9A0895CF93C82FE82F880FFF0BE07F6E
:10011000FF2784E0F595E7958A95E1F7EE59FF4FC3
:1001200080810E94B201EC2FEF700E2E000CFF0BAD
:10013000EE59FF4F80810E94B201CF910895A2E154
:10014000B0E0E5EAF0E00C94E70A809180008F5F70
:100150008093800083E40E94B201BE01695F7F4FFB
:10016000CE010F960E945C088E838F859889A9899D
:10017000BA89AC01BD012AE07695679557954795F8
:100180002A95D1F753705C834B839C0133703A837B
:100190002983AC01BD0134E1769567955795479564
:1001A0003A95D1F747704D830E94820088890E945A
:1001B000820089890E9482008A890E9482008E8141
:1001C0000E94820010E08E81181758F4E7E0F0E0FA
:1001D000EC0FFD1FE10FF11D80810E9482001F5F67
:1001E000F2CF86E40E94B2016296E3E00C94030B26
:1001F000863421F128F4823471F08334B1F008950B
:10020000823509F44CC0833509F452C0803509F0B9
:1002100055C080E551C010927E008FEF9FEF909304
:1002200061008093600082E447C08FEF9FEF90935E
:1002300061008093600010927E00089540911A0141
:1002400030911B0160911C0150911D0120911E01F4
:10025000E22FF0E080917E0090E00597E817F90723
:1002600049F098E088E10FB6F894A89581BD0FBEDB
:1002700091BDFFCFD99884E080938200862F90E0D3
:10028000A0E0B0E0DC0199278827B52B842BBC01C6
:10029000CD01732B4FE151E00E945A07089598E079
:1002A00088E10FB6F894A89581BD0FBE91BDFFCF30
:1002B00080E30E94B20182E30E94B201089520ED22
:1002C000280F082E000C990B2A3010F08755910941
:1002D0008295807F90ED960F9A3010F4892B0895C7
:1002E0006755862B0895CF939FEB980F9A3118F49A
:1002F0000E94F80021C020916000309161002F3FE2
:100300009FEF390721F4082E000C990B11C0C09102
:100310007E0091E09C0F90937E00682F822F0E94B8
:100320005F01EC2FF0E0E65EFE4F80838FEF9FEFE2
:10033000909361008093600080917E00803448F04B
:1003400098E088E10FB6F894A89581BD0FBE91BDE5
:10035000FFCFCF91089580B385FB882780F991E086
:100360008927089580FD02C070E001C070E881FD1A
:1003700002C060E001C060E482FD02C050E001C044
:1003800050E283FD02C040E001C040E184FD02C0B4
:1003900030E001C038E085FD02C020E001C024E06B
:1003A00086FD02C090E001C092E0881F8827881F68
:1003B000872B862B582B452B342B232B922B8D9858
:1003C000959A8599FECF8FEF84BB95BB969A8E9AAE
:1003D000000000000000969814BA08958C98959A31
:1003E00000000000000080B38295817091E08927B1
:1003F00008958C98959A8499FECF14BA8FEF85BB97
:10040000000000000000000097988F9A0000000094
:100410000000000093B390FD02C070E001C070E8DE
:1004200091FD02C060E001C060E492FD02C050E0B6
:1004300001C050E293FD02C040E001C040E194FDE4
:1004400002C030E001C038E095FD02C020E001C0EC
:1004500024E096FD02C080E001C082E0991F992748
:10046000991F972B962B592B452B342B232B979A7F
:10047000822B089520E030E080E09EE0929FF00122
:10048000939FF00D1124E559FE4F408141118F5F7C
:100490002F5F3F4F2C30310589F7089520E030E081
:1004A0009EE0929FF001939FF00D1124E559FE4FBD
:1004B0008081811106C02F5F3F4F2C30310589F7B5
:1004C0000895822F089580E090E02EE0289FF001AB
:1004D000299FF00D1124E559FE4F3081332329F077
:1004E00001968C30910591F780E00895EEE5F1E0FA
:1004F0001482108211821282138215821682178250
:1005000010868FEF818712861386148685E083BF5D
:1005100081E089BF82E0809385008091850081958C
:1005200082BF2091850030E040E050E062E47FE04F
:1005300080E090E00E94B90ACA01B90124E630E0E7
:1005400040E050E00E94B90A2250209384000895B0
:10055000809166018F5F809366018C3309F04DC0F6
:1005600010926601809165018F5F809365018C33E5
:1005700009F043C010926501809167018F3F29F017
:10058000809167018F5F80936701809164018F5F25
:1005900080936401883189F5109264018091630130
:1005A0008F5F80936301883019F481E08093630149
:1005B000809168018F5F80936801E0916901E1504B
:1005C000EC3028F4F0E0EE58FF4F808101C080E06D
:1005D00090916801891788F491E090936801809167
:1005E00069018F5F809369018D3038F090936901C4
:1005F00080916A018F5F80936A01089590916701ED
:1006000081E09F3F09F480E008951F920F920FB69A
:100610000F9211240F931F932F933F934F935F9348
:100620006F937F938F939F93AF93BF93EF93FF93BA
:10063000CF93DF93CDB7DEB72C97DEBFCDBF8091D0
:100640008500819582BF0E940D08882309F457C058
:10065000BE016F5F7F4FCE0109960E941208182FCE
:100660000E943A028C30C0F50E9463022EE0829F05
:10067000C0011124FC01E559FE4F81E0808389858A
:100680009A85AB85BC8581839283A383B4831583CC
:10069000DE01119620E030E0BF01211748F44D91B2
:1006A000CB01820F931FFC0146832F5F3F4FF5CF95
:1006B0008091920090919300A0919400B091950048
:1006C0000196A11DB11D8093920090939300A09379
:1006D0009400B093950013C080918E0090918F008C
:1006E000A0919000B09191000196A11DB11D809341
:1006F0008E0090938F00A0939000B0939100809112
:10070000990091E0980F9093990090918400981728
:1007100008F059C010929900809162018F5F809318
:100720006201843619F51092620180915E01909108
:100730005F01A0916001B09161010196A11DB11D01
:1007400080935E0190935F01A0936001B09361017B
:1007500080911302909114029093160280931502D7
:1007600010921402109213020E94A8020AE910E0EB
:10077000D801ED91FD918D01309709F00995B0E018
:100780000A3A1B07A9F780915A0190915B01A09149
:100790005C01B0915D01181619061A061B069CF43F
:1007A00080915A0190915B01A0915C01B0915D0133
:1007B0000197A109B10980935A0190935B01A0931D
:1007C0005C01B0935D012C960FB6F894DEBF0FBEAE
:1007D000CDBFDF91CF91FF91EF91BF91AF919F91ED
:1007E0008F917F916F915F914F913F912F911F91C9
:1007F0000F910F900FBE0F901F901895CF9380917F
:10080000970090919800892B89F482E090E00E94F3
:10081000310BC82F83E090E00E94310B2C2F30E089
:10082000382B337030939800209397008091970075
:1008300090919800CF910895EF92FF920F931F939C
:10084000CF93DF937C010AEB10E0C0E0D0E0D80149
:100850004D915C9111974115510531F112968D9191
:100860009C9113978F3FBFEF9B0731F0F7012281D7
:10087000338182179307C1F4DE01A654BF4F14964B
:100880008C911497882321F0F701948189130CC06F
:1008900015968C91882329F0D70116969C9189137F
:1008A00003C0C701FA0109950A5F1F4F2696C0369B
:1008B000D10569F6CDB7DEB7E6E00C94000B1F93C7
:1008C000CF93DF93EC01162F0E94EE07882389F166
:1008D0008A819B819370A0E0B0E0AC01BD018AE009
:1008E000440F551F661F771F8A95D1F79C8197701B
:1008F000892F90E0A0E0B0E024E1880F991FAA1FA3
:10090000BB1F2A95D1F7842B952BA62BB72B48819B
:100910005981537060E070E0842B952BA62BB72B88
:10092000BC01CD01912B2D81AE014A5F5F4F0E942A
:100930005A07CE010E941C04DF91CF911F910895A8
:1009400063E00E945F040895CF93DF93EAEBF0E049
:10095000A0E0B0E0C081D181CD2B79F436E03A9FA0
:10096000F0013B9FF00D1124E654FF4F91838083EB
:10097000738362834483258305C011963696A03124
:10098000B10541F7DF91CF910895CF930E94760290
:10099000EAEBF0E011821082369681E0EA31F80746
:1009A000C9F7EAEAF0E01192119280E0EA3BF80719
:1009B000D1F7EAE9F0E01192119280E0EA3AF80703
:1009C000D1F780E090E02EE0289FF001299FF00D04
:1009D0001124E559FE4F108201968C309105A1F744
:1009E0000E9452060E941B07C82F0E94FE0321E0AE
:1009F00041E0BC0182EF98E00E94A40421E041E0C4
:100A000064E270E082EF98E00E94A40478948C2F56
:100A1000CF910895EAEAF0E020E030E04191519171
:100A2000452B41F4220F331FF901E655FF4F918307
:100A3000808308952F5F3F4F2830310579F708955F
:100A4000EAEAF0E020E030E041915191481759077F
:100A500041F4220F331FF901E655FF4F1182108236
:100A600008952F5F3F4F2830310571F70895EAE967
:100A7000F0E020E030E041915191452B41F4220F0C
:100A8000331FF901E656FF4F9183808308952F5F4E
:100A90003F4F2830310579F70895A2E1B0E0E3E552
:100AA000F5E00C94E50A0AEA10E048E0F42E0E9412
:100AB0000308882351F1BE01695F7F4FCE010F9675
:100AC0000E945C088E838F859889A989BA89AC01B8
:100AD000BD012AE076956795579547952A95D1F7F8
:100AE00053705C834B839C0133703A83298334E1D8
:100AF000B695A795979587953A95D1F787708D8389
:100B0000CE0101960E941C0406C0D801ED91FC9113
:100B1000309709F00995FA940E5F1F4FF110C7CF77
:100B20006296E5E00C94010BA2E1B0E0EAE9F5E0A1
:100B30000C94E80A0E940308882349F1BE01695F0A
:100B40007F4FCE010F960E945C088E838F85988917
:100B5000A989BA89AC01BD012AE0769567955795B8
:100B600047952A95D1F753705C834B839C01337072
:100B70003A83298334E1B695A795979587953A9559
:100B8000D1F787708D83CE0101960E941C04629676
:100B9000E2E00C94040BAEE0B0E0E1EDF5E00C9483
:100BA000E80A0E94FE039A83898383E290E09C8393
:100BB0008B8381E08D8385E08F8384E0888782E06A
:100BC0008E8360E0CE0101960E945F0410921402B1
:100BD00010921302A8950E944D05809113029091E6
:100BE000140201969093140280931302F3CF98E0BD
:100BF00088E10FB6F894A89581BD0FBE91BDFFCFD7
:100C00009091960091111EC091E09093960090E013
:100C1000A0E0B0E080935A0190935B01A0935C0147
:100C2000B0935D010E944D0580915A0190915B0146
:100C3000A0915C01B0915D01892B8A2B8B2B91F7E0
:100C4000109296000895AEE0B0E0E9E2F6E00C9470
:100C5000E50A8E010A5E1F4FF801F1908F010E9494
:100C6000FE039A83898383E290E09C838B8381E0F7
:100C70008D8385E08F83F801CE010896DC012A2F51
:100C8000281B2F1520F4208132962D93F8CFF39452
:100C9000FE8260E0CE0101960E945F042E96E5E0A0
:100CA0000C94010B87B3806A87BBC79880E58DB928
:100CB00081E08EB908958FB9779BFECF8FB10895EB
:100CC00080E00E945B060895C4980895C49A089530
:100CD000A2E0B0E0EEE6F6E00C94E70A182F4A83B3
:100CE00069830E94640685E00E945B06812F0E9452
:100CF0005B066981862F0E945B064A81842F0E94D1
:100D00005B060E9466062296E3E00C94030BA1E0CA
:100D1000B0E0EDE8F6E00C94E70A182F0E946406B4
:100D200083E00E945B06812F0E945B060E946006A2
:100D300089830E94660689812196E3E00C94030B67
:100D4000A1E0B0E0E6EAF6E00C94E70A182F698328
:100D50000E94640682E00E945B06812F0E945B066F
:100D60006981862F0E945B060E9466062196E3E059
:100D70000C94030BCF93C82F482F60EE8FE00E9496
:100D800068068FE00E948706807E91E08C1301C088
:100D900090E0892FCF910895A2E0B0E0E2EDF6E077
:100DA0000C94E40A082F142F69837A830E94640646
:100DB00082E00E945B06802F0E945B066981062FFD
:100DC000E62E7A81F72E8E2D801B811730F4F701E5
:100DD00081917F010E945B06F6CF0E9466062296F3
:100DE000E6E00C94000BA2E0B0E0E9EFF6E00C9432
:100DF000E40A082F142F69837A830E94640683E033
:100E00000E945B06802F0E945B066981062FE62EFA
:100E10007A81F72E8E2D801B811738F48FEF0E9478
:100E20005B06F70181937F01F5CF0E94660622964B
:100E3000E6E00C94000BBC9AC49A0E94640680EC15
:100E40000E945B060E9466068FEF90E00E94A90850
:100E500080E80E94BA0681111FC063E08AE20E9406
:100E6000A00660E989E20E94A00662E088E20E9492
:100E7000A00660E08BE20E94A00660E680E60E9489
:100E8000A00660E08CE00E94A00660E08DE00E9479
:100E9000A00680E00E94BA060895F8948295807FAB
:100EA000805D0E948706789483FB882780F991E013
:100EB00089270895A5E0B0E0E0E6F7E00C94E10AA8
:100EC0006B017C018A01B22E80E00E944D078111E6
:100ED0001FC081E00E944D0781111CC082E00E946A
:100EE0004D07811119C08091860090918700A091D3
:100EF0008800B09189000196A11DB11D80938600E4
:100F000090938700A0938800B093890081E062C02D
:100F100030E003C031E001C032E0F894D701C601EF
:100F200025E1B695A795979587952A95D1F7898359
:100F30002E2D2370D701C6014DE0B695A795979544
:100F400087954A95D1F7807E822B88608A83DB82E1
:100F5000CC82F32EF29450EFF52244E0BE016F5F95
:100F60007F4F81E38F0D3D830E94CC066B2D85E37F
:100F70008F0D0E94A0064B2DB80186E38F0D0E94B5
:100F8000CC0648E068E080E38F0D0E9468060E946E
:100F9000640681E090E03D8101C0880F3A95EAF750
:100FA00080680E945B060E946606789480918A00A1
:100FB00090918B00A0918C00B0918D000196A11DA5
:100FC000B11D80938A0090938B00A0938C00B09306
:100FD0008D0080E02596E9E00C94FD0A80E00E94F7
:100FE0004D07882311F081E0089581E00E944D07AC
:100FF0008111F9CF82E00E944D0791E0811101C07B
:1010000090E0892F0895F8940E943A02982F7894DE
:1010100081E0911101C080E008958CE20E94870672
:1010200081700895A4E0B0E0E8E1F8E00C94E40AEF
:101030007C018B0144E0BE016F5F7F4F81E60E941F
:10104000F3068A819B81498150E060E070E025E1F0
:10105000440F551F661F771F2A95D1F7592B9C8186
:10106000492B982F9370692B807E90E0A0E0B0E030
:101070003DE0880F991FAA1FBB1F3A95D1F7482B57
:10108000592B6A2B7B2BF701408351836283738337
:1010900085E60E9487068F70F82E482FB80186E6F5
:1010A0000E94F30640E061E08CE20E9468068F2D0A
:1010B0002496E6E00C94000BEF92FF920F931F939F
:1010C000CF93DF938C017B01F8940E943A0288232E
:1010D00041F10E944E022EE0829FC0011124FC01CA
:1010E000E559FE4F81819281A381B481E801888313
:1010F0009983AA83BB8380E0DF0115969C918917B1
:1011000068F4282F30E0AF01420F531FEA019E819F
:101110002E0D3F1DE90198838F5FF0CF8C911082D7
:1011200001C080E07894CDB7DEB7E6E00C94000B08
:10113000CF938DE10E948706C82F8CE10E9487061D
:101140002C2F30E0322F2227A901482BCA01CF9142
:101150000895009741F020E233E00000215031096A
:10116000E1F70197F6CF0895009711F400C00895B4
:101170000197F1F708950F931F9370E09CE3899F07
:10118000600D711D112430E08CE3489F200D311D4E
:101190001124809164014091650150E09CE3899F96
:1011A000400D511D11242617370738F420563A4FA9
:1011B0004617570710F440565A4F8091630110E0CC
:1011C00002C0159507958A95E2F700FF07C04617FC
:1011D000570720F081E02417350708F480E01F91BD
:1011E0000F910895AEE0B0E0E8EFF8E00C94E40A67
:1011F0007C010E94FE039A838983F701808191819B
:101200009C838B8381E08D838F8397819E3109F44A
:10121000B8C0D0F4993009F461C060F4933009F497
:1012200054C0953009F457C0913009F074C182E080
:1012300088874BC1963109F46EC0983109F479C0A2
:10124000943109F068C152C09B3209F4F1C070F4C6
:10125000933209F4BFC0993209F4C4C0913209F045
:101260005AC182E28887198688E0B9C09F3209F4A2
:1012700005C1913309F42FC19D3209F04CC18EE2B2
:10128000888780918A0090918B00A0918C00B0910A
:101290008D00B98780918A0090918B00A0918C007D
:1012A000B0918D00AA8780918A0090918B00A091C7
:1012B0008C00B0918D009B8780918A0090918B006B
:1012C000A0918C00B0918D00FEC084E0888782E000
:1012D00089879E83FBC00E94F7051DC19AE098870D
:1012E000898784E090E00E94310B79C0F701018585
:1012F00010E0102F00278085082BC8010E94310BB9
:10130000F7016285861719F0C8010E94390B85E143
:10131000888782E0DAC087E18887F701818590E0DD
:10132000982F88272085822B0E94310B898783E0A4
:10133000CCC0F701018510E0102F00278085082B15
:1013400089E18887C8010E94310B8987C80101960D
:101350000E94310B8A87C80102960E94310B8B874D
:10136000C80103960E94310B8C87C80104960E9425
:10137000310B8D87C80105960E94310B8E8788E05E
:10138000A4C086E08E838FE1888780915E01909172
:101390005F01A0916001B0916101B98780915E0108
:1013A00090915F01A0916001B0916101AA87809145
:1013B0005E0190915F01A0916001B09161019B87F6
:1013C00080915E0190915F01A0916001B0916101F7
:1013D0008C877CC00E94980824E2288799878A8796
:1013E00084E073C08AE28887809192009091930094
:1013F000A0919400B0919500B9878091920090914E
:101400009300A0919400B0919500AA8780919200DA
:1014100090919300A0919400B09195009B8780914A
:10142000920090919300A0919400B09195004BC0D0
:101430008CE2888780918E0090918F00A09190001F
:10144000B0919100B98780918E0090918F00A0910A
:101450009000B0919100AA8780918E0090918F00AA
:10146000A0919000B09191009B8780918E00909107
:101470008F00A0919000B091910025C080E38887F3
:101480008091860090918700A0918800B09189009A
:10149000B9878091860090918700A0918800B091D3
:1014A0008900AA878091860090918700A09188008A
:1014B000B09189009B878091860090918700A091D0
:1014C0008800B09189008C8786E08E83CE010196DA
:1014D0000E94A00420C010929200109293001092DB
:1014E00094001092950010928E0010928F0010922E
:1014F00090001092910010928A0010928B0010922E
:101500008C0010928D00109286001092870010922D
:101510008800109289002E96E6E00C94000BA895A6
:101520008FEF8ABB8BB383608BBB0E94C50483E6BD
:1015300090E00E94370589E50E94B20184B7805D82
:101540000E94B20114BEDA9ADA9AC4E0A8950E9409
:101550000308813029F4D898C09383000E949F002B
:101560000E94EE01882391F30E94F9010E94730109
:10157000EDCF052E97FB1EF400940E94D00A57FD74
:1015800007D00E940F0B07FC03D04EF40C94D00A36
:1015900050954095309521953F4F4F4F5F4F08959F
:1015A00090958095709561957F4F8F4F9F4F0895CF
:1015B0002F923F924F925F926F927F928F929F9263
:1015C000AF92BF92CF92DF92EF92FF920F931F9351
:1015D000CF93DF93CDB7DEB7CA1BDB0B0FB6F89402
:1015E000DEBF0FBECDBF09942A88398848885F8442
:1015F0006E847D848C849B84AA84B984C884DF80B3
:10160000EE80FD800C811B81AA81B981CE0FD11D96
:101610000FB6F894DEBF0FBECDBFED010895A1E275
:101620001A2EAA1BBB1BFD010DC0AA1FBB1FEE1F5C
:10163000FF1FA217B307E407F50720F0A21BB30BA7
:10164000E40BF50B661F771F881F991F1A9469F723
:1016500060957095809590959B01AC01BD01CF017F
:101660000895E199FECF9FBB8EBBE09A99278DB379
:101670000895262FE199FECF9FBB8EBB2DBB0FB6E1
:10168000F894E29AE19A0FBE01960895F894FFCF7C
:10169000FFFF3031323334353637383961626364B5
:0E16A00065661F1C1F1E1F1E1F1F1E1F1E1F04
:00000001FF
